{
  "_format": "hh-sol-artifact-1",
  "contractName": "Raffle",
  "sourceName": "contracts/Raffle.sol",
  "abi": [
    {
      "inputs": [
        {
          "internalType": "address",
          "name": "vrfCoordinatorV2",
          "type": "address"
        },
        {
          "internalType": "uint64",
          "name": "subscriptionId",
          "type": "uint64"
        },
        {
          "internalType": "bytes32",
          "name": "gasLane",
          "type": "bytes32"
        },
        {
          "internalType": "uint256",
          "name": "interval",
          "type": "uint256"
        },
        {
          "internalType": "uint256",
          "name": "entranceFee",
          "type": "uint256"
        },
        {
          "internalType": "uint32",
          "name": "callbackGasLimit",
          "type": "uint32"
        }
      ],
      "stateMutability": "nonpayable",
      "type": "constructor"
    },
    {
      "inputs": [
        {
          "internalType": "address",
          "name": "have",
          "type": "address"
        },
        {
          "internalType": "address",
          "name": "want",
          "type": "address"
        }
      ],
      "name": "OnlyCoordinatorCanFulfill",
      "type": "error"
    },
    {
      "inputs": [],
      "name": "Raffle__NotOpen",
      "type": "error"
    },
    {
      "inputs": [],
      "name": "Raffle__SendMoreToEnterRaffle",
      "type": "error"
    },
    {
      "inputs": [],
      "name": "Raffle__TransferFailed",
      "type": "error"
    },
    {
      "inputs": [
        {
          "internalType": "uint256",
          "name": "currentBalance",
          "type": "uint256"
        },
        {
          "internalType": "uint256",
          "name": "numPlayers",
          "type": "uint256"
        },
        {
          "internalType": "uint256",
          "name": "raffleState",
          "type": "uint256"
        }
      ],
      "name": "Raffle__UpkeepNotNeeded",
      "type": "error"
    },
    {
      "anonymous": false,
      "inputs": [
        {
          "indexed": true,
          "internalType": "address",
          "name": "player",
          "type": "address"
        }
      ],
      "name": "RaffleEnter",
      "type": "event"
    },
    {
      "anonymous": false,
      "inputs": [
        {
          "indexed": true,
          "internalType": "uint256",
          "name": "requestId",
          "type": "uint256"
        }
      ],
      "name": "RequestedRaffleWinner",
      "type": "event"
    },
    {
      "anonymous": false,
      "inputs": [
        {
          "indexed": true,
          "internalType": "address",
          "name": "winner",
          "type": "address"
        }
      ],
      "name": "WinnerPicked",
      "type": "event"
    },
    {
      "inputs": [
        {
          "internalType": "bytes",
          "name": "",
          "type": "bytes"
        }
      ],
      "name": "checkUpkeep",
      "outputs": [
        {
          "internalType": "bool",
          "name": "upkeepNeeded",
          "type": "bool"
        },
        {
          "internalType": "bytes",
          "name": "",
          "type": "bytes"
        }
      ],
      "stateMutability": "nonpayable",
      "type": "function"
    },
    {
      "inputs": [],
      "name": "enterRaffle",
      "outputs": [],
      "stateMutability": "payable",
      "type": "function"
    },
    {
      "inputs": [],
      "name": "getEntranceFee",
      "outputs": [
        {
          "internalType": "uint256",
          "name": "",
          "type": "uint256"
        }
      ],
      "stateMutability": "view",
      "type": "function"
    },
    {
      "inputs": [],
      "name": "getInterval",
      "outputs": [
        {
          "internalType": "uint256",
          "name": "",
          "type": "uint256"
        }
      ],
      "stateMutability": "view",
      "type": "function"
    },
    {
      "inputs": [],
      "name": "getLastTimeStamp",
      "outputs": [
        {
          "internalType": "uint256",
          "name": "",
          "type": "uint256"
        }
      ],
      "stateMutability": "view",
      "type": "function"
    },
    {
      "inputs": [],
      "name": "getNumberOfPlayers",
      "outputs": [
        {
          "internalType": "uint256",
          "name": "",
          "type": "uint256"
        }
      ],
      "stateMutability": "view",
      "type": "function"
    },
    {
      "inputs": [
        {
          "internalType": "uint256",
          "name": "index",
          "type": "uint256"
        }
      ],
      "name": "getPlayer",
      "outputs": [
        {
          "internalType": "address",
          "name": "",
          "type": "address"
        }
      ],
      "stateMutability": "view",
      "type": "function"
    },
    {
      "inputs": [],
      "name": "getRaffleState",
      "outputs": [
        {
          "internalType": "enum Raffle.RaffleState",
          "name": "",
          "type": "uint8"
        }
      ],
      "stateMutability": "view",
      "type": "function"
    },
    {
      "inputs": [],
      "name": "getRecentWinner",
      "outputs": [
        {
          "internalType": "address",
          "name": "",
          "type": "address"
        }
      ],
      "stateMutability": "view",
      "type": "function"
    },
    {
      "inputs": [],
      "name": "getentranceFee",
      "outputs": [
        {
          "internalType": "uint256",
          "name": "",
          "type": "uint256"
        }
      ],
      "stateMutability": "view",
      "type": "function"
    },
    {
      "inputs": [
        {
          "internalType": "bytes",
          "name": "",
          "type": "bytes"
        }
      ],
      "name": "performUpkeep",
      "outputs": [],
      "stateMutability": "nonpayable",
      "type": "function"
    },
    {
      "inputs": [
        {
          "internalType": "uint256",
          "name": "requestId",
          "type": "uint256"
        },
        {
          "internalType": "uint256[]",
          "name": "randomWords",
          "type": "uint256[]"
        }
      ],
      "name": "rawFulfillRandomWords",
      "outputs": [],
      "stateMutability": "nonpayable",
      "type": "function"
    }
  ],
  "bytecode": "0x6101606040523480156200001257600080fd5b50604051620017fe380380620017fe8339818101604052810190620000389190620001ad565b858073ffffffffffffffffffffffffffffffffffffffff1660808173ffffffffffffffffffffffffffffffffffffffff1660601b81525050508573ffffffffffffffffffffffffffffffffffffffff1660c08173ffffffffffffffffffffffffffffffffffffffff1660601b815250508361010081815250508467ffffffffffffffff1660e08167ffffffffffffffff1660c01b815250508160a081815250508063ffffffff166101208163ffffffff1660e01b815250506000600160146101000a81548160ff02191690836001811115620001195762000118620002b5565b5b0217905550826101408181525050426002819055505050505050506200036b565b6000815190506200014b81620002e9565b92915050565b600081519050620001628162000303565b92915050565b60008151905062000179816200031d565b92915050565b600081519050620001908162000337565b92915050565b600081519050620001a78162000351565b92915050565b60008060008060008060c08789031215620001cd57620001cc620002e4565b5b6000620001dd89828a016200013a565b9650506020620001f089828a0162000196565b95505060406200020389828a0162000151565b94505060606200021689828a0162000168565b93505060806200022989828a0162000168565b92505060a06200023c89828a016200017f565b9150509295509295509295565b6000620002568262000267565b9050919050565b6000819050919050565b600073ffffffffffffffffffffffffffffffffffffffff82169050919050565b6000819050919050565b600063ffffffff82169050919050565b600067ffffffffffffffff82169050919050565b7f4e487b7100000000000000000000000000000000000000000000000000000000600052602160045260246000fd5b600080fd5b620002f48162000249565b81146200030057600080fd5b50565b6200030e816200025d565b81146200031a57600080fd5b50565b620003288162000287565b81146200033457600080fd5b50565b620003428162000291565b81146200034e57600080fd5b50565b6200035c81620002a1565b81146200036857600080fd5b50565b60805160601c60a05160c05160601c60e05160c01c610100516101205160e01c61014051611410620003ee6000396000818161074f01526107f7015260006106550152600061061101526000610632015260006105d50152600081816102b40152818161041e015261081f0152600081816102f1015261034501526114106000f3fe6080604052600436106100a75760003560e01c80636e04ff0d116100645780636e04ff0d1461018957806391ad27b4146101c75780639d55993b146101f2578063c1c244e81461021d578063e55ae4e814610248578063fd6673f514610285576100a7565b806309bc33a7146100ac578063115cbaf5146100d75780631fe543e3146101025780632cfcc5391461012b5780634585e33b14610135578063473f1ddc1461015e575b600080fd5b3480156100b857600080fd5b506100c16102b0565b6040516100ce9190611016565b60405180910390f35b3480156100e357600080fd5b506100ec6102d8565b6040516100f99190610ffb565b60405180910390f35b34801561010e57600080fd5b5061012960048036038101906101249190610def565b6102ef565b005b6101336103af565b005b34801561014157600080fd5b5061015c60048036038101906101579190610cff565b61051e565b005b34801561016a57600080fd5b5061017361071d565b6040516101809190610f34565b60405180910390f35b34801561019557600080fd5b506101b060048036038101906101ab9190610d4c565b610747565b6040516101be929190610f78565b60405180910390f35b3480156101d357600080fd5b506101dc6107f3565b6040516101e99190611016565b60405180910390f35b3480156101fe57600080fd5b5061020761081b565b6040516102149190611016565b60405180910390f35b34801561022957600080fd5b50610232610843565b60405161023f9190611016565b60405180910390f35b34801561025457600080fd5b5061026f600480360381019061026a9190610d95565b61084d565b60405161027c9190610f34565b60405180910390f35b34801561029157600080fd5b5061029a610894565b6040516102a79190611016565b60405180910390f35b60007f0000000000000000000000000000000000000000000000000000000000000000905090565b6000600160149054906101000a900460ff16905090565b7f000000000000000000000000000000000000000000000000000000000000000073ffffffffffffffffffffffffffffffffffffffff163373ffffffffffffffffffffffffffffffffffffffff16146103a157337f00000000000000000000000000000000000000000000000000000000000000006040517f1cf993f4000000000000000000000000000000000000000000000000000000008152600401610398929190610f4f565b60405180910390fd5b6103ab82826108a0565b5050565b600060018111156103c3576103c26112f0565b5b600160149054906101000a900460ff1660018111156103e5576103e46112f0565b5b1461041c576040517f1425571c00000000000000000000000000000000000000000000000000000000815260040160405180910390fd5b7f0000000000000000000000000000000000000000000000000000000000000000341015610476576040517f3038c00a00000000000000000000000000000000000000000000000000000000815260040160405180910390fd5b6000339080600181540180825580915050600190039060005260206000200160009091909190916101000a81548173ffffffffffffffffffffffffffffffffffffffff021916908373ffffffffffffffffffffffffffffffffffffffff1602179055503373ffffffffffffffffffffffffffffffffffffffff167f0805e1d667bddb8a95f0f09880cf94f403fb596ce79928d9f29b74203ba284d460405160405180910390a2565b600061053860405180602001604052806000815250610747565b509050806105a75747600080549050600160149054906101000a900460ff166001811115610569576105686112f0565b5b6040517f584327aa00000000000000000000000000000000000000000000000000000000815260040161059e93929190611031565b60405180910390fd5b60018060146101000a81548160ff021916908360018111156105cc576105cb6112f0565b5b021790555060007f000000000000000000000000000000000000000000000000000000000000000073ffffffffffffffffffffffffffffffffffffffff16635d3b1d307f00000000000000000000000000000000000000000000000000000000000000007f000000000000000000000000000000000000000000000000000000000000000060037f000000000000000000000000000000000000000000000000000000000000000060016040518663ffffffff1660e01b8152600401610696959493929190610fa8565b602060405180830381600087803b1580156106b057600080fd5b505af11580156106c4573d6000803e3d6000fd5b505050506040513d601f19601f820116820180604052508101906106e89190610dc2565b9050807fcd6e45c8998311cab7e9d4385596cac867e20a0587194b954fa3a731c93ce78b60405160405180910390a250505050565b6000600160009054906101000a900473ffffffffffffffffffffffffffffffffffffffff16905090565b6000606060007f00000000000000000000000000000000000000000000000000000000000000006002544261077c9190611111565b1190506000806001811115610794576107936112f0565b5b600160149054906101000a900460ff1660018111156107b6576107b56112f0565b5b149050600080600080549050119050600080471190508380156107d65750825b80156107df5750805b80156107e85750815b955050505050915091565b60007f0000000000000000000000000000000000000000000000000000000000000000905090565b60007f0000000000000000000000000000000000000000000000000000000000000000905090565b6000600254905090565b60008082815481106108625761086161131f565b5b9060005260206000200160009054906101000a900473ffffffffffffffffffffffffffffffffffffffff169050919050565b60008080549050905090565b60008080549050826000815181106108bb576108ba61131f565b5b60200260200101516108cd9190611261565b905060008082815481106108e4576108e361131f565b5b9060005260206000200160009054906101000a900473ffffffffffffffffffffffffffffffffffffffff16905080600160006101000a81548173ffffffffffffffffffffffffffffffffffffffff021916908373ffffffffffffffffffffffffffffffffffffffff1602179055506000600160146101000a81548160ff02191690836001811115610978576109776112f0565b5b0217905550600067ffffffffffffffff8111156109985761099761134e565b5b6040519080825280602002602001820160405280156109c65781602001602082028036833780820191505090505b50600090805190602001906109dc929190610aca565b5060008173ffffffffffffffffffffffffffffffffffffffff1647604051610a0390610f1f565b60006040518083038185875af1925050503d8060008114610a40576040519150601f19603f3d011682016040523d82523d6000602084013e610a45565b606091505b5050905080610a80576040517fa1d04b3900000000000000000000000000000000000000000000000000000000815260040160405180910390fd5b8173ffffffffffffffffffffffffffffffffffffffff167f5b690ec4a06fe979403046eaeea5b3ce38524683c3001f662c8b5a829632f7df60405160405180910390a25050505050565b828054828255906000526020600020908101928215610b43579160200282015b82811115610b425782518260006101000a81548173ffffffffffffffffffffffffffffffffffffffff021916908373ffffffffffffffffffffffffffffffffffffffff16021790555091602001919060010190610aea565b5b509050610b509190610b54565b5090565b5b80821115610b6d576000816000905550600101610b55565b5090565b6000610b84610b7f8461108d565b611068565b90508083825260208201905082856020860282011115610ba757610ba6611387565b5b60005b85811015610bd75781610bbd8882610cd5565b845260208401935060208301925050600181019050610baa565b5050509392505050565b6000610bf4610bef846110b9565b611068565b905082815260208101848484011115610c1057610c0f61138c565b5b610c1b8482856111ee565b509392505050565b600082601f830112610c3857610c37611382565b5b8135610c48848260208601610b71565b91505092915050565b60008083601f840112610c6757610c66611382565b5b8235905067ffffffffffffffff811115610c8457610c8361137d565b5b602083019150836001820283011115610ca057610c9f611387565b5b9250929050565b600082601f830112610cbc57610cbb611382565b5b8135610ccc848260208601610be1565b91505092915050565b600081359050610ce4816113c3565b92915050565b600081519050610cf9816113c3565b92915050565b60008060208385031215610d1657610d15611396565b5b600083013567ffffffffffffffff811115610d3457610d33611391565b5b610d4085828601610c51565b92509250509250929050565b600060208284031215610d6257610d61611396565b5b600082013567ffffffffffffffff811115610d8057610d7f611391565b5b610d8c84828501610ca7565b91505092915050565b600060208284031215610dab57610daa611396565b5b6000610db984828501610cd5565b91505092915050565b600060208284031215610dd857610dd7611396565b5b6000610de684828501610cea565b91505092915050565b60008060408385031215610e0657610e05611396565b5b6000610e1485828601610cd5565b925050602083013567ffffffffffffffff811115610e3557610e34611391565b5b610e4185828601610c23565b9150509250929050565b610e5481611145565b82525050565b610e6381611157565b82525050565b610e7281611163565b82525050565b6000610e83826110ea565b610e8d81856110f5565b9350610e9d8185602086016111fd565b610ea68161139b565b840191505092915050565b610eba816111dc565b82525050565b6000610ecd600083611106565b9150610ed8826113ac565b600082019050919050565b610eec81611180565b82525050565b610efb816111ae565b82525050565b610f0a816111b8565b82525050565b610f19816111c8565b82525050565b6000610f2a82610ec0565b9150819050919050565b6000602082019050610f496000830184610e4b565b92915050565b6000604082019050610f646000830185610e4b565b610f716020830184610e4b565b9392505050565b6000604082019050610f8d6000830185610e5a565b8181036020830152610f9f8184610e78565b90509392505050565b600060a082019050610fbd6000830188610e69565b610fca6020830187610f10565b610fd76040830186610ee3565b610fe46060830185610f01565b610ff16080830184610f01565b9695505050505050565b60006020820190506110106000830184610eb1565b92915050565b600060208201905061102b6000830184610ef2565b92915050565b60006060820190506110466000830186610ef2565b6110536020830185610ef2565b6110606040830184610ef2565b949350505050565b6000611072611083565b905061107e8282611230565b919050565b6000604051905090565b600067ffffffffffffffff8211156110a8576110a761134e565b5b602082029050602081019050919050565b600067ffffffffffffffff8211156110d4576110d361134e565b5b6110dd8261139b565b9050602081019050919050565b600081519050919050565b600082825260208201905092915050565b600081905092915050565b600061111c826111ae565b9150611127836111ae565b92508282101561113a57611139611292565b5b828203905092915050565b60006111508261118e565b9050919050565b60008115159050919050565b6000819050919050565b600081905061117b826113af565b919050565b600061ffff82169050919050565b600073ffffffffffffffffffffffffffffffffffffffff82169050919050565b6000819050919050565b600063ffffffff82169050919050565b600067ffffffffffffffff82169050919050565b60006111e78261116d565b9050919050565b82818337600083830152505050565b60005b8381101561121b578082015181840152602081019050611200565b8381111561122a576000848401525b50505050565b6112398261139b565b810181811067ffffffffffffffff821117156112585761125761134e565b5b80604052505050565b600061126c826111ae565b9150611277836111ae565b925082611287576112866112c1565b5b828206905092915050565b7f4e487b7100000000000000000000000000000000000000000000000000000000600052601160045260246000fd5b7f4e487b7100000000000000000000000000000000000000000000000000000000600052601260045260246000fd5b7f4e487b7100000000000000000000000000000000000000000000000000000000600052602160045260246000fd5b7f4e487b7100000000000000000000000000000000000000000000000000000000600052603260045260246000fd5b7f4e487b7100000000000000000000000000000000000000000000000000000000600052604160045260246000fd5b600080fd5b600080fd5b600080fd5b600080fd5b600080fd5b600080fd5b6000601f19601f8301169050919050565b50565b600281106113c0576113bf6112f0565b5b50565b6113cc816111ae565b81146113d757600080fd5b5056fea26469706673582212204c3e8f211f78866bfc840e3db26c5c2446402f67af608ec2582cbfee100a762364736f6c63430008070033",
  "linkReferences": {},
  "deployedLinkReferences": {}
}